:020000040000FA
:1000000001C0D8C0112480914000882369F0282FB6
:1000100030E083FD03C02C7F232B31F4809340001C
:100020008CBB80E0AFD0ECC0A895009A089A1092E3
:10003000E205809182128370813029F58CE590E091
:10004000809308089093090881E080930B0883E06F
:10005000809307081092050880EC8093060888E0DA
:1000600091D0079A87E0815089F4A8950DE983E043
:10007000D82E7CD08134F1F479D0182F8CD012385E
:1000800089F480E013C083E790E0DACF179A2EEC72
:1000900036E5A8959091040897FDE8CF21503109E5
:1000A000C1F7E1CF89E0113809F083E058D080E151
:1000B00056D0DFCF823419F484E175D0F8CF85347F
:1000C00011F485E0FACF853531F450D0C82F4ED0E9
:1000D000D82F61D0ECCF863519F484E064D0D1CF2D
:1000E0008436B9F443D042D0182F40D0863479F406
:1000F000D05C3CD0888321961150D9F74CD004BFF6
:10010000D0920010809102108370E1F7D0CFDC5EB6
:10011000F0CF843791F42AD029D0182F27D0F82E89
:100120003AD086E4F81207C0D05C8881219617D0B7
:100130001150D9F7BCCFDC5EF8CF853751F42BD006
:10014000809100110CD08091011109D08091021191
:10015000ADCF813509F0BDCF81E014D0BACF9091F9
:10016000040895FFFCCF809302080895809104084D
:1001700087FFFCCF909101088091000892FD01C09B
:10018000A89508959091010190FDFCCF98ED94BF42
:10019000809300010895EADF803219F081E0F2DFF8
:1001A000FFCF84E1DCCFCF93C82FE0DFC150E9F768
:1001B000CF91F1CF683048F48DE984BF609300108F
:1001C000809102108370E1F70895FC014083089547
:1001FE00000949C000006FC000006DC000006BC058
:10020E00000069C0000067C0000065C000000C94CB
:10021E00751961C000005FC000005DC000005BC0CA
:10022E00000059C000000C94A5170C9422180C94D1
:10023E00C51851C000000C9477170C9451174BC081
:10024E00000049C0000047C0000045C0000043C088
:10025E00000041C000000C94FA173DC000003BC0E6
:10026E00000039C0000037C0000035C0000033C0A8
:10027E00000031C000002FC000002DC000002BC0B8
:10028E000000551ACE2111241FBECFEFCDBFDFE3E4
:10029E00DEBF2BE2AAE1B8E201C01D92A734B2077D
:1002AE00E1F718E2A0E0B8E2E5E8F1E502C005905A
:1002BE000D92AA31B107D9F711E0C9E4D1E004C01B
:1002CE002197FE010E949C24C834D107C9F70E94D1
:1002DE00AB1C0C9499268DCF8091B3289091B428A5
:1002EE0001968093B3289093B4280895E7E4FAE238
:1002FE00108213861486158616861786108AECE2EF
:10030E00FAE2108213861486158616861786108AD0
:10031E000895FC01508D418D252F30E0842F90E003
:10032E00821B930B541710F0CF96089501970895E2
:10033E00FC0196898789981761F0A789AE0FBF2FA8
:10034E00B11D5D968C9197899F5F9F73978B90E0FF
:10035E0008958FEF9FEF0895FC019689878998176E
:10036E0031F08789E80FF11D858D90E008958FEFAC
:10037E009FEF0895FC0196892789892F90E0805C74
:10038E009F4F821B91098F7399270895CF93DF9307
:10039E00EC01E881F9810680F781E02D0995EC8565
:1003AE00FD8586818F738683EC85FD8585818F75AE
:1003BE0085838F898E8B1D8ADF91CF910895FC01E5
:1003CE00613019F4648B81E00895148A6623D9F3A1
:1003DE0080E00895DC0154961C92549754968C91AB
:1003EE0054978230A0F4282F30E0F901EE0FFF1F52
:1003FE00E20FF31FEA0FFB1F9785961303C0968536
:10040E00941749F08F5F54968C935497E7CF549678
:10041E001C9280E0089581E00895CF93DF93FC0154
:10042E00908D818DC485D585981306C08D818F7D65
:10043E008D83DF91CF910895A18DAE0FBF2FB11D8A
:10044E00A35ABF4F2C91818D90E001968F739927FF
:10045E00818F80E48C83A485B58512962C93908D24
:10046E00818D9813E6CFA485B58515968C91159739
:10047E008F7D15968C93838D8823D9F2848D8093EE
:10048E001301138ED6CFDC011C96ED91FC910FB6A5
:10049E0007FE03C0258125FD03C0248125FDBDCFA8
:1004AE000895EF92FF920F931F93CF93DF93EC017A
:1004BE0081E08D8B988D898D98131CC0AC85BD8580
:1004CE0014968C91149785FF15C012966C93AC857B
:1004DE00BD8580E414968C93EC85FD8585818F7D9A
:1004EE00858381E090E0DF91CF911F910F91FF9076
:1004FE00EF9008958091110180FF08C08091130143
:10050E008C8F8A8D8093130181E08B8FF62E088D50
:10051E0010E00F5F1F4F0F731127E02E898D8E1184
:10052E0003C0CE01B0DFFACFE88DEC0FFD2FF11D29
:10053E00E35AFF4FF082088FEC85FD85858180623E
:10054E00CFCFCF93DF93FC0125892223C1F0EC019D
:10055E008091110180FF08C080911301848F828DDC
:10056E008093130181E0838FEC85FD85858185FD68
:10057E0003C0848186FD03C0CE0185DFF5CFDF91F8
:10058E00CF91089588EE98E2F5DE21E0892B09F4EB
:10059E0020E0822F089580E090E0892B21F0F2DF99
:1005AE0081110E94000080E090E0892B49F080E0EC
:1005BE0090E0892B29F00E94000081110E9400001A
:1005CE0080E090E0892B49F080E090E0892B29F0C3
:1005DE000E94000081110C94000008958091E5287E
:1005EE00813009F0B6C08091392881113AC08091CE
:1005FE00E3289091E428009791F587E090E08093AE
:10060E00E3289093E42880913828882309F4CFC0FA
:10061E008091D9289DEF980F9C3008F081C0809171
:10062E002D288111C4C08091072890910828A0918F
:10063E000928B0910A28883E23E09207A105B1054A
:10064E0008F46AC08AE090E0A0E0B0E0809307284A
:10065E0090930828A0930928B0930A28089501972B
:10066E00CECF813081F6E091E328F091E4283197E6
:10067E00E730F10540F6EA5BFC4F0C949C244D03E9
:10068E005703670377037B0382038C0380910E2845
:10069E008B3420F082E380930E28B5CF8B5FFBCF97
:1006AE008091362890913728843191053CF08CEE5C
:1006BE009FEF8093362890933728A5CF0196F9CFD8
:1006CE008091342890913528843191053CF08CEE40
:1006DE009FEF809334289093352895CF0196F9CFCC
:1006EE0081E0809338288FCF8091332891E089273D
:1006FE008093332888CF80910F288E3120F081E0AF
:10070E0080930F2880CF8F5FFBCF8091942891E04C
:10071E0089278093942877CF0A96A11DB11D96CF75
:10072E008F3009F044C080912D28882309F43FC0F2
:10073E008091D5289091D6288C3221E092073CF0FA
:10074E0084ED9EEF8093D5289093D6280895019638
:10075E00F9CF81112CC08091C8288130F9F4809195
:10076E00012890910228A0910328B091042880318D
:10077E0027E29207A105B10560F40A96A11DB11DED
:10078E008093012890930228A0930328B093042805
:10079E0008958AE090E0A0E0B0E0F2CF823039F424
:1007AE00809100288A3020F48F5F8093002808956E
:1007BE0081E0FBCF81E090E0809331289093322846
:1007CE00089510922F2810923028109231281092EE
:1007DE00322880912E288F5F823018F480932E2835
:1007EE00089510922E280895AF92BF92CF92DF9265
:1007FE00EF92FF920F931F93CF93DF936C017B01C8
:10080E008B01040F151FEB015E01AE18BF08C01758
:10081E00D10759F06991D601ED91FC910190F081CB
:10082E00E02DC6010995892B79F7C501DF91CF918E
:10083E001F910F91FF90EF90DF90CF90BF90AF90F0
:10084E000895FC01448155816081718187E39BE2AB
:10085E00CBCF81E00895CF93DF9390E0FC01E95573
:10086E00F24720812F3F69F0FC01E457F247A08147
:10087E0030E2A39FD0011124BC5F613029F41196A0
:10088E002C93DF91CF9108958F589247EC01E88118
:10089E00EF3F81F0CD014096E80FF92FF11D9FB784
:1008AE00F89412962C938081623039F4886080839C
:1008BE009FBFE7CFF0E0E0E0F2CF877FF8CF109256
:1008CE00D3281092D2281092D1281092D02880913D
:1008DE00CF2881111DC08091E3058073D1F462E0B1
:1008EE0082E0B9DF62E083E0B6DF81E08093CF285B
:1008FE001092CE281092CD281092CC281092CB2890
:10090E0091EC9093A30893E49093A6088093A50886
:10091E0008958091E3058073803239F762E08AE0B2
:10092E009ADF62E08BE0E0CF90E0FC01EA5AF247FA
:10093E00E081EE2319F1E13021F000F1E630A8F06C
:10094E0008958F589247FC012081233008F02F5FC5
:10095E003091010A81E090E001C0880F2A95EAF7F4
:10096E00809583238093010A089580E1E89FF0012A
:10097E001124E05AF54F81818F7E818308950F9364
:10098E001F93CF93DF93C82FD0E0FE01E955F247B6
:10099E0000810F3F99F0162F8B3108F4C5DFFE0151
:1009AE00E457F247E08180E2E89FF0011124FC5FFA
:1009BE008081802351F0111106C00683DF91CF9103
:1009CE001F910F9108950583F9CFCF58D247888193
:1009DE00309771F08F3F61F07096E80FF11D9FB761
:1009EE00F8948081111107C0877F80839FBFE6CF67
:1009FE00F0E0E0E0F4CF8860F8CFAF92BF92CF92F4
:100A0E00DF92EF92FF920F931F93CF93DF93EC0140
:100A1E006A017B01A22E8D89882339F0E881F98144
:100A2E000688F789E02DCE0109950C8910E0BFB636
:100A3E00F89460E070E281EA97E0A70196010E94C7
:100A4E005E2469017A018FEFC81AD80AE80AF80AFB
:100A5E00F694E794D794C794EC85FD8586818D7FB7
:100A6E008683EC85FD85868186831D8AA091231160
:100A7E000A2E000CBB0BA70196010E94A82420E0B1
:100A8E0034E040E050E00E948024EC85FD85C20EEB
:100A9E00D31EE41EF51EC086D186EC85FD85A78289
:100AAE00EC85FD858681806C8683EC85FD85858150
:100ABE00806885839091E2058B89809589237801E2
:100ACE00EE0CFF1CF701E00FF11FEC0FFD1F9089DC
:100ADE00892B8093E20586858B3110F462E0BBDEB4
:100AEE00F701E00FF11FEC0FFD1F87858B3110F41E
:100AFE0061E045DF0E0D1F1DC00FD11F8F858B319D
:100B0E0010F461E0A8DEBFBEDF91CF911F910F916F
:100B1E00FF90EF90DF90CF90BF90AF90089510921E
:100B2E00E72883E08093E628E1DB60E084E027DFBE
:100B3E001092E52808950F931F93CF93082F10E07E
:100B4E00F801E955F247C081CF3F81F08B3108F4AF
:100B5E00EBDEF801E457F247E08180E2E89FF00116
:100B6E001124FC5F8085C82381E009F480E0CF91D9
:100B7E001F910F9108958FB7F89420918828309186
:100B8E00892840918A2850918B28E091AA0AF091E9
:100B9E00AB0A9091A60A90FF08C02F5F3F4F4F4FB0
:100BAE005F4FE091AA0AF091AB0A8FBFA8EEB3E0B7
:100BBE000E940E2324E0F695E7952A95E1F76E0F35
:100BCE007F1F811D911D08958F929F92AF92BF92AC
:100BDE00CF92DF92EF92FF924B015C01CCDF6B0163
:100BEE007C01A8EEB3E0A50194010E940E23C60E6F
:100BFE00D71EE81EF91EC616D706E806F90610F42B
:100C0E00BADFF9CFB8DF6C157D058E059F05D0F3E1
:100C1E00FF90EF90DF90CF90BF90AF909F908F900E
:100C2E0008952FB7F8946091882870918928809143
:100C3E008A2890918B282FBF08950F931F93CF93DF
:100C4E00DF93FC012081222309F450C0EC01818541
:100C5E0092850197B9F5E5DF0B891C892D893E89AF
:100C6E00601B710B820B930B09811A812B813C81C6
:100C7E006017710782079307C8F1D3DF6B8B7C8BEC
:100C8E008D8B9E8B8B859C85AD85BE854D815E81C2
:100C9E006F817885481B590B6A0B7B0B41305105D0
:100CAE006105710509F418820196A11DB11D8B878E
:100CBE009C87AD87BE87E989FA89DF91CF911F9115
:100CCE000F91099458DF0B891C892D893E89601B71
:100CDE00710B820B930B09811A812B813C8160175A
:100CEE0071078207930710F046DFC8CFDF91CF91CF
:100CFE001F910F910895CF93DF93FC0121893289C3
:100D0E00232BA1F0EC0181859285019791F489DF67
:100D1E006B8B7C8B8D8B9E8B81E088831B861C86D8
:100D2E001D861E8681E090E08F87988BDF91CF9194
:100D3E00089521DFEDCF2091D72A3091D82A232B89
:100D4E0031F4A8EEB3E09B01AC010E940E23609338
:100D5E00CF2A7093D02A8093D12A9093D22A61E021
:100D6E0087E10DDE8EEC9AE2C6CF8091D4288111F8
:100D7E000CC060E088E103DE60E085E100DE88E91A
:100D8E009AE2B9DF81E08093D428089568EE73E08B
:100D9E0080E090E0D0DF60E088E1F1DD60E089E1A5
:100DAE00EEDD60E084E1EBDD60E083E1E8DD60E054
:100DBE0084E0E5DD1092CA2882E08093C928109263
:100DCE000628D3DF1092E5281092C8281092C72863
:100DDE008DDA1092C6281092C52881E08093DA2809
:100DEE001092C4281092C0281092C1281092C228C6
:100DFE001092C3280895E0EAF8E0918590669187F5
:100E0E0092E09093CF2880937C2810927B280895AF
:100E1E0081E080937B2810927C2893E09093AA081F
:100E2E009091AB0891FF0BC010928628F0E0E0E0A5
:100E3E0009958093852885E08093CF280895109298
:100E4E0087288093842886E0F7CF089581E090E08C
:100E5E003091D3282091D228321710F490E080E000
:100E6E0091958195910908958091D3289091D228DA
:100E7E00891730F48F5F8093D32890E080E0089537
:100E8E008FEF9FEF08958091D2289091D328891BE0
:100E9E00990B0895CF92DF92EF92FF920F931F93CB
:100EAE00CF93DF937C018A01EB016B01C40ED51E3B
:100EBE00CC15DD0551F06991D701ED91FC910190B2
:100ECE00F081E02DC7010995F3CFC801DF91CF91D5
:100EDE001F910F91FF90EF90DF90CF90089520918A
:100EEE00D028203440F021E030E0FC01228333830F
:100EFE0090E080E008958091D128E82FF0E0E55C45
:100F0E00F74D60838F5F8093D1288093D02881E046
:100F1E0090E00895CF93FC01C481C0933A281092BB
:100F2E00D1281092D0288385682B85E899E2D7DFE7
:100F3E008091CF28813009F04BC09091CC2891112F
:100F4E0047C09091D0288093CC281092CB282BE3C9
:100F5E0038E220937E2830937F2890938028109239
:100F6E0082281092CD281092CE2880938128CC0F03
:100F7E00C0937D2893E024E080918028882331F06F
:100F8E009093CF2880917D288E7F09C080918228F2
:100F9E00882341F02093CF2880917D288160809313
:100FAE00A70808C080918028811104C080918228F2
:100FBE00882331F38091CB288823E1F38091CB28CD
:100FCE008330D1F280918228882341F08091CE28FF
:100FDE001092D1281092D028CF9108958091CB28CD
:100FEE00F7CF089590E080E00895CF92DF92EF92D0
:100FFE00FF920F931F93CF93DF93EC0188818B3178
:10100E00F8F499DD082F10E00CDE298D3A8D2115AC
:10101E003105C1F42A853B852017310741F421E0C3
:10102E0030E0298F3A8F6B8F7C8F8D8F9E8FDF9163
:10103E00CF911F910F91FF90EF90DF90CF90089579
:10104E0080E0E0CF2130310509F051C02885398587
:10105E0020173107E9F40B8D1C8D2D8D3E8DAB01C4
:10106E00BC01401B510B620B730B8E819F81092EAD
:10107E00000CAA0BBB0B481759076A077B0718F41D
:10108E00198E1A8ED4CF82E090E0898F9A8FCFCFAF
:10109E002A853B852017310751F60B8D1C8D2D8D22
:1010AE003E8DAB01BC01401B510B620B730B8C814F
:1010BE009D81092E000CAA0BBB0B84179507A60762
:1010CE00B70708F0B4CF81E08C87E989FA893097A9
:1010DE0009F00995EB89FC89309709F00995EF899C
:1010EE00F88D309709F0099586E090E0CECF22304A
:1010FE00310519F5CB8CDC8CED8CFE8C6C197D09D1
:10110E008E099F09CA80DB800D2C000CEE08FF08AB
:10111E00C616D706E806F90638F4ED85FE85309733
:10112E0009F4AECF0995ACCF8A859B8580179107C0
:10113E0009F07DCF83E090E0A8CF2330310549F44C
:10114E00888599858017910709F071CFEF85F88909
:10115E00E6CF2630310509F06ACF8885998580174C
:10116E00910721F41C86ED89FE89D9CF81E08C8709
:10117E00EF89F88D309709F45ACFDF91CF911F91F7
:10118E000F91FF90EF90DF90CF90099460E087E190
:10119E00F6DBEEECFAE210821386148615861686BE
:1011AE001786108A0895CF9380912F28909130281A
:1011BE0003974CF18091312890913228019719F5BF
:1011CE00C0912E28C11102C0CF91E0CDC130D9F40B
:1011DE0068EE73E080E090E0AEDDC093C62810921A
:1011EE00CA281092C928C093062810927D2A109200
:1011FE00882A1092892A10928A2A10928B2A10928B
:10120E008C2A10928D2ACF9108958091E528811114
:10121E003AC080912B2890912C28019680932B28F0
:10122E0090932C28C297BCF08091012890910228AF
:10123E00A0910328B09104280A97A109B1098093BF
:10124E00012890930228A0930328B09304281092AB
:10125E002B2810922C288091012890910228A09181
:10126E000328B09104280997A105B10560F480E127
:10127E0097E2A0E0B0E08093012890930228A0931B
:10128E000328B093042880913828882309F473C06A
:10129E008091D9289DEF980F9C3008F040C0809126
:1012AE002D28811168C080912B2890912C280196B1
:1012BE0080932B2890932C2880359105B9F480913A
:1012CE00072890910828A0910928B0910A280A971A
:1012DE00A109B1098093072890930828A0930928A3
:1012EE00B0930A2810922B2810922C288091072850
:1012FE0090910828A0910928B0910A280B97A10572
:10130E00B105C8F588EE93E0A0E0B0E08093072821
:10131E0090930828A0930928B0930A2808958F3037
:10132E0051F580912D28882331F180912B289091B1
:10133E002C28019680932B2890932C28803591058C
:10134E0069F48091D5289091D62801978093D5285D
:10135E009093D62810922B2810922C288091D52865
:10136E009091D628853D9E4F34F48CE291E0809387
:10137E00D5289093D62808958091E52881113BC0F9
:10138E0080912B2890912C28019680932B28909356
:10139E002C28C297BCF08091012890910228A09130
:1013AE000328B09104280A96A11DB11D809301282F
:1013BE0090930228A0930328B093042810922B2810
:1013CE0010922C288091012890910228A091032838
:1013DE00B091042881319742A105B10560F08AE0F1
:1013EE0090E0A0E0B0E08093012890930228A093B3
:1013FE000328B093042880913828882309F474C0F8
:10140E008091D9289DEF980F9C3008F041C08091B3
:10141E002D28811169C080912B2890912C2801963E
:10142E0080932B2890932C2880359105B9F48091C8
:10143E00072890910828A0910928B0910A280A96A9
:10144E00A11DB11D8093072890930828A093092809
:10145E00B0930A2810922B2810922C2880910728DE
:10146E0090910828A0910928B0910A28883E9340AF
:10147E00A105B105C8F18AE090E0A0E0B0E080934C
:10148E00072890930828A0930928B0930A28089556
:10149E008F3051F580912D28882331F180912B28A2
:1014AE0090912C28019680932B2890932C28803590
:1014BE00910569F48091D5289091D6280196809354
:1014CE00D5289093D62810922B2810922C288091F4
:1014DE00D5289091D6288C32914034F084ED9EEF31
:1014EE008093D5289093D6280895CF93C091E52860
:1014FE00C13099F461E089E142DA80913928811195
:10150E005EC08091E3289091E4288730910509F020
:10151E0050C01092E3281092E42880913828882336
:10152E0029F18091D9289DEF980F9C3008F0AAC020
:10153E0080912D2881111AC080910728909108283A
:10154E00A0910928B0910A288B309105A105B1050B
:10155E0008F094C088EE93E0A0E0B0E080930728F6
:10156E0090930828A0930928B0930A28C1111FC090
:10157E008091C828813009F0A2C0809101289091F5
:10158E000228A0910328B09104288B309105A10563
:10159E00B10508F090C080E197E2A0E0B0E0809342
:1015AE00012890930228A0930328B0930428CF918A
:1015BE00089501968093E3289093E428AECF81306E
:1015CE0009F0ABCFE091E328F091E4283197E730B2
:1015DE00F10508F0A2CFEA50F54F0C949C24FD0AB9
:1015EE00070B180B290B2D0B340B3E0B80910E287D
:1015FE00823321F48BE480930E288FCF8550FBCF5E
:10160E0080913628909137288C3E2FEF920739F42F
:10161E0084E190E080933628909337287ECF01970F
:10162E00F9CF80913428909135288C3E2FEF920778
:10163E0039F484E190E080933428909335286DCF6F
:10164E000197F9CF81E08093382867CF80913328B6
:10165E0091E089278093332860CF80910F288130C5
:10166E0021F48EE180930F2858CF8150FBCF8091CB
:10167E00942891E08927809394284FCF0A97A10947
:10168E00B1096CCF8F3009F071CF80912D2888234E
:10169E0009F46CCF8091D5289091D628853D2EEFF8
:1016AE0092073CF48CE291E08093D5289093D62853
:1016BE005DCF0197F9CF0A97A109B10970CF82309A
:1016CE0009F075CF80910028823020F48AE0809353
:1016DE0000286DCF8150FBCF809131289091322818
:1016EE00019749F480912F2890913028019680938C
:1016FE002F2890933028089560E086E140D960E06D
:10170E0082E13DD960E088E13AD9E8E9FAE2108257
:10171E0013861486158616861786108A0895DC01A0
:10172E00ED91FC910488F589E02D23E030E00994D9
:10173E00FC0180819181FC01FF2790FD06C080E0B5
:10174E0094E1E82BF92B8081089580E093E1F9CFA5
:10175E00EF92FF921F93CF93DF9300D0CDB7DEB7FA
:10176E007C0189839A83CE010196E2DF182F8FEFD9
:10177E00E81AF80AE982FA82CE010196D9DF212F02
:10178E0030E0322F2227820F932F911D0F900F9052
:10179E00DF91CF911F91FF90EF900895DF92EF921E
:1017AE00FF920F931F93CF93DF9300D0CDB7DEB789
:1017BE008EE090E089839A83CE010196B9DF809303
:1017CE000D2886E090E0C4DF7C018093DF2882E163
:1017DE0090E0BEDF8C018093DB2884E090E089836B
:1017EE009A83CE010196A4DFD82E81E0D11001C0DC
:1017FE0080E08093E02886E190E089839A83CE0191
:10180E00019696DF91E0811101C090E09093DC2863
:10181E00FF24DD2019F0F194E194F108E092E12823
:10182E00F092E2281127882319F0119501951109DC
:10183E000093DD281093DE2881E090E089DF80930D
:10184E000C2864E670E080E090E0BED90F900F9017
:10185E00DF91CF911F910F91FF90EF90DF90089540
:10186E008091E5288230B1F460E084E088D810924F
:10187E00E7280E947D018091C628811124C08091A5
:10188E00C528811120C08091B72881111CC01092EB
:10189E00E52819C0813079F71092B0288091392847
:1018AE00811127C08091382881110DC01092E52832
:1018BE001092E6281092C8281092E3281092E4287D
:1018CE0060E089E15CD880910628811103C082E036
:1018DE008093C9281092C8288091E3289091E4281B
:1018EE00049731F4109238281092D9281092392882
:1018FE000895813041F78091E3289091E428109269
:10190E00392883309105F9F07CF481309105A9F0E6
:10191E000297C9F68091E1289091E22880933628AB
:10192E00909337283BDFCFCF85309105D9F0A4F0C7
:10193E00079749F610929428C6CF30DF80910D2874
:10194E0080930E28C0CF8091DD289091DE28809361
:10195E00342890933528E6CF21DF1092D9281092A3
:10196E003828B1CF10923328AECF8091E728882344
:10197E0021F082E08093E52808958091DA28811184
:10198E0006C01092E52860E089E10C94C6048091AF
:10199E00E52881112EC080912E2881112AC081E068
:1019AE008093B0288093E52883E08093C828109216
:1019BE0039281092E3281092E428F0DE8091E12875
:1019CE009091E22880933628909337288091DD28D5
:1019DE009091DE28809334289093352880910D289D
:1019EE0080930E2864EF71E080E090E0A4D961E06E
:1019FE00CBCF0895FC01FF2790FD12C080E094E14B
:101A0E00E82BF92B60838FB7F8949DE923E094BF00
:101A1E00209300108FBF8091021081FDFCCF08959E
:101A2E0080E093E1EDCF1F93CF93DF93EC01162F60
:101A3E0060E0E0DF612FCE010196DF91CF911F9123
:101A4E00D9CF1F93CF93DF9300D0CDB7DEB7809160
:101A5E00E3289091E4288230910581F144F40197B6
:101A6E00B9F00F900F90DF91CF911F9108958330B1
:101A7E00910509F43DC00497A1F760910C2870E020
:101A8E0081E090E00F900F90DF91CF911F91CBCF1F
:101A9E0010910E2810930D288EE090E089839A8382
:101AAE00CE01019645DE1817E1F2612F8EE090E02F
:101ABE000F900F90DF91CF911F919CCF8091E128D5
:101ACE009091E22897FF11C091E09093E0288195C4
:101ADE008093DF286091DF2870E086E090E0A3DF3E
:101AEE006091E02884E090E0E3CF1092E028F0CF00
:101AFE008091DD289091DE2897FF11C091E09093A0
:101B0E00DC2881958093DB286091DB2870E082E1F0
:101B1E0090E089DF6091DC2886E190E0C9CF1092D9
:101B2E00DC28F0CF8F929F92AF92BF92CF92DF922E
:101B3E00EF92FF92CF938091E528811118C080918A
:101B4E00DA28882339F08091C8288F5F833060F4BB
:101B5E008093C828CF91FF90EF90DF90CF90BF90E9
:101B6E00AF909F908F9008951092C828F3CF813038
:101B7E0089F7C0913928CF5FC093392861E089E198
:101B8E000E94C6048091E3289091E428C23009F0A7
:101B9E004AC08830910508F046C0FC01E752F24F6A
:101BAE000C949C24E10DF90D010E0A0E1A0E130E63
:101BBE00180E180E81E08093C4281092DA28109225
:101BCE00C0281092C1281092C2281092C328809368
:101BDE0092281092CA28109239281092C828109272
:101BEE00E528B8CF80910E2880930D282ADF109219
:101BFE003928B0CF80913628909137288093E128EC
:101C0E009093E228F3CF80913428909135288093D9
:101C1E00DD289093DE28EACF809133288093B62872
:101C2E00E6CF10923928049709F094CF8091D928E5
:101C3E00811105C091E09093382810922D2891E0E3
:101C4E00980F9093D9289F3061F421E020932D288E
:101C5E0082508C3058F483E08093D92810922D282E
:101C6E0079CF9230A9F710920B2874CF903109F0EA
:101C7E0071CF8090072890900828A0900928B090E6
:101C8E000A28C501B4010E94F9216B017C01609103
:101C9E00D5287091D628072E000C880B990B680D4D
:101CAE00791D8A1D9B1D0E94F9219B01AC01C70164
:101CBE00B6010E94BD236B017C0160910C2870E07F
:101CCE0090E080E00E94FB219B01AC01C701B601B0
:101CDE000E945A226B017C0120E030E0A9010E9493
:101CEE00562420E030E040E05FE387FD10C0C701DE
:101CFE00B6010E9459230E94252460930C28A1DE70
:101D0E0010923928109238281092D92823CFC70163
:101D1E00B6010E945823EFCF8091DA28909138288F
:101D2E009923C9F08823B1F061E084E00E94C604D3
:101D3E008CE29AE20E9482061092472A1092522A50
:101D4E001092532A1092542A1092552A1092562A03
:101D5E001092572A08958823E9F361E084E00E94E7
:101D6E00C604A0912A28AF5FA0932A2820910128AB
:101D7E00309102284091032850910428B0E00E942F
:101D8E000E236093252870932628809327289093FE
:101D9E002828CECF8091DA2890913828992359F1AE
:101DAE00882341F160E084E00E94C6048FE08093B6
:101DBE00D92881E08093E52880932D281092472A18
:101DCE001092522A1092532A1092542A1092552A87
:101DDE001092562A1092572A10922C2A1092372AB5
:101DEE001092382A1092392A10923A2A10923B2ACF
:101DFE0010923C2A08958823E9F360E084E00E9463
:101E0E00C60490912A28809100289817D0F084E07B
:101E1E008093E62864EF71E080E090E00E94A206D5
:101E2E001092472A1092522A1092532A1092542A34
:101E3E001092552A1092562A1092572A1092E7287D
:101E4E00CBCF20910F2888EE93E0289FD001299FB9
:101E5E00B00D1124BD010B2E000C880B990B209197
:101E6E00502A3091512A232B21F428EE33E00E9480
:101E7E00A2246093482A7093492A80934A2A909309
:101E8E004B2A87E49AE20E948206A6CF8091DA2836
:101E9E008823D1F082E08093E6288093E5280E9483
:101EAE0018062091232821110BC060931F287093D0
:101EBE002028809321289093222881E08093232844
:101ECE0061E084E00C94C60408958091E628813088
:101EDE00B1F4A0910C282091012830910228409154
:101EEE00032850910428B0E00E940E23609310281E
:101EFE00709311288093122890931328089582309E
:101F0E0011F41092232808950F931F93CF938C01F1
:101F1E00C62F00D86C2F6460C8010E9491076C2FE9
:101F2E006B7FC8010E94910783EC90E00197F1F757
:101F3E00CF911F910F9108950F931F93CF93DF931E
:101F4E008C01D62FC42F607F642BDEDF80E1D89FFB
:101F5E00B00111246C2BC801DF91CF911F910F910D
:101F6E00D3CF40E061E087E39BE2E6DF8BE39FE1C6
:101F7E000197F1F70895F5DF80910528833009F078
:101F8E0083C082E08093E52808958091D92882301D
:101F9E0008F47EC08091DA28882309F479C0A091D4
:101FAE000C2820910728309108284091092850913B
:101FBE000A28B0E00E940E23609310287093112817
:101FCE0080931228909313282091352A3091362A27
:101FDE00232B31F4A8EEB3E09B01AC010E940E233B
:101FEE0060932D2A70932E2A80932F2A9093302A55
:101FFE0082E08093E52885E08093E62820910F28E3
:10200E0088EE93E0289FD001299FB00D1124BD01C9
:10201E000B2E000C880B990B2091502A3091512ACF
:10202E00232B21F428EE33E00E94A2246093482A49
:10203E007093492A80934A2A90934B2A87E49AE216
:10204E000C9482060E94180660931B2870931C281D
:10205E0080931D2890931E2810922928809106287F
:10206E0081111092C92882E08093E52860E084E017
:10207E000E94C60483E08093E62827DF68EE73E0B3
:10208E0080E090E00C94A2069091382891117DCFBB
:10209E008091E6288230B1F22091E72821116FC09D
:1020AE0091116FC08091DA28882309F46AC01092CA
:1020BE00292881E08093E62810922A2882E08093D6
:1020CE00E5288091062881111092C928FEDE209104
:1020DE001028309111284091122850911328809188
:1020EE00352A9091362A892B31F4A8EEB3E00E945E
:1020FE000E239B01AC0120932D2A30932E2A409360
:10210E002F2A5093302A20910F2888EE93E0289F93
:10211E00D001299FB00D1124BD010B2E000C880B90
:10212E00990B2091502A3091512A232B21F428EE1D
:10213E0033E00E94A2246093482A7093492A809328
:10214E004A2A90934B2A87E49AE20E94820681E003
:10215E008093E72808951092E72882E08093E5287F
:10216E0060E084E00E94C60484E08093E62864EF79
:10217E0071E080E090E00E94A2060C947D01813017
:10218E0051F30895CF93DF93CDB7DEB72897CDBF28
:10219E00DEBF98E0EAE4FDE8DE01119601900D92B3
:1021AE009A95E1F790913F2B961708F46FEF262F33
:1021BE0030E0220F331F41E050E04C0F5D1F240F23
:1021CE00351FF9016081680F606840E087E39BE28C
:1021DE002896CDBFDEBFDF91CF91AECE41E0ACDE13
:1021EE0081E090E00895CF93DF93823028F09091B4
:1021FE003C2B986090933C2B80933F2B62E370E0D6
:10220E0080E090E00E94EB056091422B87E39BE219
:10221E000E94910768EE73E080E090E00E94EB056B
:10222E0060E387E39BE270DECBE4D6E4CE01019758
:10223E00F1F760E387E39BE267DE2197F1F760E356
:10224E0087E39BE261DE83E592E00197F1F760E2BE
:10225E0087E39BE259DE60913C2B606240E087E3AE
:10226E009BE26ADE84E080933D2B40E06CE087E3E6
:10227E009BE262DE76DE82E080933E2B40E066E0FB
:10228E0087E39BE259DE40E062E087E39BE254DEA7
:10229E008BE39FE10197F1F7DF91CF910895FC0158
:1022AE0001900020E9F73197AF01481B590BBC0193
:1022BE0087E39BE20C94FB038F929F92AF92BF92A7
:1022CE000F931F93CF93DF93CDB7DEB7A197CDBFFB
:1022DE00DEBF19A2423008F44AE08E010F5D1F4F97
:1022EE00842E912CB12CA12CA50194010E945E2468
:1022FE00E62FB901CA01EA30D4F4E05DD801EE93BD
:10230E008D01232B242B252B79F790E080E010975D
:10231E0011F0CD01C4DFA196CDBFDEBFDF91CF910D
:10232E001F910F91BF90AF909F908F900895E95C91
:10233E00E5CFCF92DF92EF92FF926C01990FEE08EC
:10234E00FF08F7FE14C041E06DE287E39BE2F4DD87
:10235E0066277727CB016C197D098E099F094AE004
:10236E00ABDF0196FF90EF90DF90CF9008954AE09B
:10237E00C701B601FF90EF90DF90CF909DCF682FF1
:10238E0070E090E080E04AE097CF009709F087CFA9
:10239E0090E080E00895CF93DF938091DA28811149
:1023AE00B8C01092E528DF91CF91089560E080E0EB
:1023BE00E9DE82E09EE8E9DF61E080E0E3DE83E1D2
:1023CE009EE8DF91CF91E1CF80910B28853000F50B
:1023DE0060E080E0D7DE84E29EE8D7DF61E080E057
:1023EE00D1DE85E39EE8D1DF61E088E0CBDE90911F
:1023FE000B2825E030E0A901491B5109CA0199DFDC
:10240E0061E089E0BFDE8BE39EE8BFDF1092D82843
:10241E0080910B28863008F4C6CF8091D828811180
:10242E001CC060E0AFDE85E39EE8AFDF61E080E0D8
:10243E00A9DE86E49EE8A9DF61E084E00E94C6047E
:10244E0068E57BE180E090E00E94EB0560E084E0CF
:10245E000E94C60481E08093D82860E080E092DE7E
:10246E0087E59EE892DF61E080E08CDE87E69EE8FD
:10247E00A8CF60E080E086DE88E79EE886DF60E039
:10248E0088E080DE609107287091082880910928E5
:10249E0090910A284AE010DF61E080E073DE89E85F
:1024AE009EE873DF8091D72891E0980F9093D728FC
:1024BE00953049F460E088E065DE88E39EE865DFEC
:1024CE001092D72870CF843008F06DCF60E088E08E
:1024DE0059DE609107287091082880910928909103
:1024EE000A284AE0DF91CF91E7CE843008F05BCF27
:1024FE00C0910728D09108288091D5289091D62890
:10250E00C80FD91F61E086E03DDECE01DF91CF918D
:10251E0010CF8091D928823009F456CF08F446CFD7
:10252E00833009F4A6CF8F3009F03DCF60E080E014
:10253E0029DE8AE99EE829DF61E080E023DE8CEA6D
:10254E009EE823DF8091D72891E0980F9093D728AB
:10255E009CEF980F923048F661E086E013DE82E43D
:10256E009EE8ADCF4F925F926F927F928F929F9225
:10257E00AF92BF92CF92DF92EF92FF92CF93DF9303
:10258E006B017C01AC019B010E945A24882389F0C7
:10259E008DEB9EE8DF91CF91FF90EF90DF90CF9083
:1025AE00BF90AF909F908F907F906F905F904F9065
:1025BE0076CE46015701E894B7F82FEF3FEF4FE77D
:1025CE005FE7C501B4010E945A2481110DC02FEF9F
:1025DE003FEF4FE75FE7C501B4010E94F5211816E2
:1025EE001CF481EC9EE8D6CF2FEF3FEF4FE75FE470
:1025FE00C701B6010E94562418161CF485EC9EE8FD
:10260E00C9CF2FEF3FEF4FE75FECC701B6010E9436
:10261E00F52187FDF3CF20E030E0A901C701B60117
:10262E000E94F521D0E0C0E087FF0BC041E06DE2D3
:10263E0087E39BE281DCF7FAF094F7F8F094C1E0BF
:10264E00D0E02AE037ED43EA5BE3C701B6010E9412
:10265E0059234B015C010E942A246B017C010E94CC
:10266E00F9219B01AC01C501B4010E9458234B0115
:10267E005C014AE0C701B6011FDE7C01EC0EFD1EB7
:10268E0089EC9EE80CDEE80EF91E20E030E040E218
:10269E0051E4C501B4010E945A222B013C010E9453
:1026AE002A244B01B12CA12C4AE0C501B40104DE51
:1026BE00E80EF91EC501B4010E94F9219B01AC017F
:1026CE00C301B2010E94582320E030E040E251E401
:1026DE000E945A220E942A2490E080E04AE0ECDD1B
:1026EE008E0D9F1DDF91CF91FF90EF90DF90CF90D9
:1026FE00BF90AF909F908F907F906F905F904F9014
:10270E0008950F931F93CF93DF938091E528823026
:10271E0031F58091E628853009F085C08091382802
:10272E008823E9F08091D9288230C8F061E080E0FA
:10273E0029DD8BEC9EE829DE60E080E023DD88E772
:10274E009EE823DE60E088E01DDD60910728709131
:10275E0008288091092890910A284AE0ADDD8091E1
:10276E00E528811132C08091C828811114C160E022
:10277E0009DD81E29FE809DE60E08CE003DD609117
:10278E00BC287091BD288091BE289091BF28EADEAA
:10279E009091DA2880910628992309F4CDC08111F1
:1027AE0003C082E08093C92861E080E0EBDC809179
:1027BE00C92826E0829FC00111248B5D944D0E9492
:1027CE00280460E089E10E94C6048091E5288130EA
:1027DE0009F0A0C180913928811154C10091E328DC
:1027EE001091E42860E0CEDC86E0809FE001819FBE
:1027FE00D00D1124CE018751954D0E94280461E021
:10280E0080E0C0DCCE018151954D0730110511F4E9
:10281E0089EE9AE20E94280461E080E0B3DC84E451
:10282E009EE8B3DD77C1813029F58091052883308C
:10283E0009F495CF60E080E0A5DC88E79EE8A5DD91
:10284E0060E088E09FDC6091012870910228809101
:10285E000328909104284AE02FDD61E080E092DCAD
:10286E008CED9EE892DD61E08FE08CDC80912A2871
:10287E0086DD75CF823091F480910528833009F47E
:10288E006ECF60E080E07EDC85E39EE87EDD61E079
:10289E0080E078DC8BEC9EE878DD61CF843009F047
:1028AE0038C080912928843188F560E080E06ADCA8
:1028BE008EE39EE86ADD60E080E064DC60912528AE
:1028CE007091262880912728909128284AE0F4DCE0
:1028DE0060E086E057DC8BE49FE857DD60E089E03E
:1028EE0051DC85E59FE851DD60E08EE04BDC8091A8
:1028FE002A2845DD61E080E045DC8DEE9EE845DD71
:10290E00809129288F5F8093292829CF1092E5285E
:10291E0026CF833009F023CF809129288431B0F758
:10292E0060E080E02FDC8FEF9EE82FDD61E080E03D
:10293E0029DC80E19FE8E3CF882309F446CFC091DC
:10294E00D72881E08C0F8093D72861E088E10E9420
:10295E00C6048CEF8C0F823068F461E080E012DCEC
:10296E0085E39EE812DD1092D72860E088E10E9490
:10297E00C60427CFC43008F028CF61E080E002DC27
:10298E008091922826E0829FC0011124875E944D8B
:10299E000E9428041ACF813009F03BC060E080E02D
:1029AE00F1DB88E79EE8F1DC60E08CE0EBDB8BE4AA
:1029BE009FE8EBDC8091D72891E0980F9093D72871
:1029CE009CEF980F9230A8F460E087E0DBDB8EE39B
:1029DE009EE8DBDC1092D72861E080E0D3DB8EE24C
:1029EE009FE8D3DC61E08AE0CDDB80910028C7DC74
:1029FE00ECCE843088F760E087E0C4DB609101287C
:102A0E007091022880910328909104284AE054DCAA
:102A1E00E3CF823009F07EC060E080E0B3DB8FE36D
:102A2E009FE8B3DC60E087E0ADDB60910128709138
:102A3E00022880910328909104284AE03DDC61E051
:102A4E0080E0A0DB80E59FE8A0DC61E08AE09ADB15
:102A5E008AE39EE89ADC8091D72891E0980F9093B4
:102A6E00D7289CEF980F923048F461E08AE08ADB19
:102A7E008BE39EE88ADC1092D728A7CE843008F02C
:102A8E00A4CEB0CF813009F070C1E091E328F0916F
:102A9E00E428E830F10508F03DC0E85AFA4E0C94EF
:102AAE009C2460157215D1152216C7166816841649
:102ABE00AA1660E080E066DB8BE59FE866DC61E0ED
:102ACE0080E060DB8CE69FE860DC61E082E05ADB50
:102ADE008FE69FE8A6CE60E080E054DB80E89FE8BA
:102AEE0054DC61E080E04EDB81E99FE84EDC8091B2
:102AFE00D72891E0980F9093D7289CEF980F92309B
:102B0E0008F03AC061E089E03DDB8FE39EE83DDCF2
:102B1E001092D7288091E528833009F0B6C18091B4
:102B2E00C528882309F445C1C091D72881E08C0FB0
:102B3E008093D72860E087E10E94C60461E088E1B7
:102B4E000E94C6048BEF8C0F823008F01BC160E030
:102B5E0080E018DB85E39EE818DC61E080E012DBA4
:102B6E0085E39EE812DC1092D72861E087E10E948F
:102B7E00C60460E088E117C1843060F661E089E048
:102B8E0001DB80910E28FBDB61E08BE0FBDA82E457
:102B9E009EE847CE0E94D50B0E94BC061092CA2812
:102BAE0060E080E0EFDA82EA9FE8EFDB60E087E04A
:102BBE00E9DA60919B2870919C2880919D289091D4
:102BCE009E28D0DC60E08BE0DDDA84E49EE8DDDB7D
:102BDE0060E08CE0D7DA6091BC287091BD288091BE
:102BEE00BE289091BF28BEDC61E080E0CBDA8AEA95
:102BFE009FE8CBDB8091D72891E0980F9093D72850
:102C0E009CEF980F923030F461E088E0BBDA85E3F8
:102C1E009EE87DCF843008F07DCF61E088E0B2DAA7
:102C2E00809136289091372884DB61E08BE0AADA18
:102C3E0085E39EE8F6CD0E94D50B0E94BC0610924D
:102C4E00CA2860E080E09EDA8AEB9FE89EDB60E0B7
:102C5E0087E098DA6091A6287091A7288091A8281D
:102C6E009091A9287FDC60E08BE08CDA84E49EE80A
:102C7E008CDB60E08CE086DA6091B8287091B92820
:102C8E008091BA289091BB286DDC61E080E07ADA01
:102C9E0082EC9FE87ADB8091D72891E0980F909391
:102CAE00D7289CEF980F923008F4AECF843008F0FE
:102CBE0031CF61E088E066DA809134289091352832
:102CCE00B3CF60E080E05EDA83ED9FE85EDB61E02B
:102CDE0080E058DA84EE9FE858DB61E082E052DA59
:102CEE00E0913328F0E0EE0FFF1FEE5AF24780819D
:102CFE0091814BDB61E085E09ACF60E080E042DAC3
:102D0E008EEE9FE842DB61E080E03CDA8FEF9FE8D9
:102D1E003CDB8091D72891E0980F9093D7289CEFB9
:102D2E00980F923030F461E086E02CDA81E49EE870
:102D3E00EECE843008F0EECE61E086E023DA8091AC
:102D4E000F281DDBE7CE60E080E01CDA80E190E921
:102D5E001CDB61E080E016DA81E290E916DB61E0CF
:102D6E0082E010DAE0919428BDCF82508F3008F0C7
:102D7E008CC08091E3289091E428049709F085C0D7
:102D8E000ADBC8CEC53008F080C060E080E0FAD91A
:102D9E008AE290E9FADA61E080E0F4D98BE390E917
:102DAE00F4DA60E089E1DF91CF911F910F910C94DD
:102DBE00C6048091C628882351F1C091D72881E09E
:102DCE008C0F8093D72860E087E10E94C60461E0F3
:102DDE0088E10E94C6048BEF8C0F823048F460E0CD
:102DEE0085E0D0D985E39EE8D0DA61E085E0B7CE04
:102DFE00C53008F04AC060E080E0C4D98CE490E9A8
:102E0E00C4DA61E080E0BED98DE590E9C9CF80914A
:102E1E00B728882309F439C0C091D72881E08C0FD8
:102E2E008093D72861E088E10E94C60460E087E1C4
:102E3E000E94C6048BEF8C0F8230A8F460E080E015
:102E4E00A1D985E39EE8A1DA61E080E09BD985E314
:102E5E009EE89BDA1092D72860E088E10E94C604B3
:102E6E0061E087E1A0CFC53080F460E080E08AD9D0
:102E7E008EE690E98ADA61E080E084D98FE790E906
:102E8E00DF91CF911F910F9180CADF91CF911F914A
:102E9E000F9108951F920F920FB60F9211242F9338
:102EAE003F934F935F936F937F938F939F93AF93C4
:102EBE00BF93EF93FF9388EE98E20E941402FF9166
:102ECE00EF91BF91AF919F918F917F916F915F9194
:102EDE004F913F912F910F900FBE0F901F9018950D
:102EEE001F920F920FB60F9211242F938F939F93D1
:102EFE00EF93FF93E091F428F091F528818181FD05
:102F0E001BC090818091FE288F5F8F732091FF28C8
:102F1E00821741F0E091FE28F0E0E851F74D958FD1
:102F2E008093FE28FF91EF919F918F912F910F909B
:102F3E000FBE0F901F9018958081F4CF1F920F92A5
:102F4E000FB60F9211248F939F93AF93BF938091DF
:102F5E008D2890918E28A0918F28B0919028892B42
:102F6E008A2B8B2B79F180918C2880B980918D28BA
:102F7E0090918E28A0918F28B0919028181619063E
:102F8E001A061B069CF480918D2890918E28A09194
:102F9E008F28B09190280197A109B10980938D28AF
:102FAE0090938E28A0938F28B093902881E08093E1
:102FBE00960ABF91AF919F918F910F900FBE0F9078
:102FCE001F90189580918D2890918E28A0918F2812
:102FDE00B0919028892B8A2B8B2B41F71092950A52
:102FEE001092900AE3CF1F920F920FB60F921124F8
:102FFE008F939F93AF93BF93809188289091892848
:10300E00A0918A28B0918B280196A11DB11D8093A5
:10301E00882890938928A0938A28B0938B2881E0E2
:10302E008093A60ABF91AF919F918F910F900FBE83
:10303E000F901F9018951F920F920FB60F9211249A
:10304E002F933F934F935F936F937F938F939F93A2
:10305E00AF93BF93CF93EF93FF93C091AB08C2FF93
:10306E000AC010928728109286281092852884E034
:10307E000E94020712C0C6FF2DC0809184288130A5
:10308E0041F48091872890E0F0E0E0E009951092FD
:10309E008428C0FF14C00E940F07FF91EF91CF91BB
:1030AE00BF91AF919F918F917F916F915F914F9152
:1030BE003F912F910F900FBE0F901F90189580E4A7
:1030CE008093AB0881E00E9402078091AB0885FFD8
:1030DE00E4CFE1CFC7FF50C0C3FF08C010928728CE
:1030EE00109286281092852883E0C2CF8091A9087D
:1030FE0080668093A9088091AB0881FF26C08091DD
:10310E008628882349F08091AB0884FF05C082E0B1
:10311E008093AA0881E0ACCF909186288091852873
:10312E00981778F4E0918628F0E080818093AD08BE
:10313E00809186288F5F8093862883E08093AA08EB
:10314E00ACCF82E08093AA0893CF9091872880918C
:10315E008328981760F48091AD08E0918728F0E0FD
:10316E008083809187288F5F80938728E6CF86E0C3
:10317E008093AA0882E07CCF85E07ACF1F920F92CF
:10318E000FB60F9211242F938F939F93EF93FF936C
:10319E008091A508982F9C70C1F08091A50894E0AD
:1031AE0082FF93E09093CB288093A50881E08093D3
:1031BE00CF281092CC28FF91EF919F918F912F9154
:1031CE000F900FBE0F901F90189586FF4CC0209148
:1031DE008028909182288091A50884FF10C080914C
:1031EE008128882351F083E08093A40885E08093A2
:1031FE00CB281092CC2881E031C081E0F5CF8091B0
:10320E00CD28821790F4E091CD2880917E28909160
:10321E007F28E80FF92FF11D80818093A8088091F7
:10322E00CD288F5F8093CD28C6CF8091CE28891769
:10323E0048F484E08093CF2880917D28816080932C
:10324E00A708B9CF80918128882359F083E0809315
:10325E00A40881E08093CB281092CC288093CF28AD
:10326E00AACF81E0F4CF87FF37C09091CE2880910E
:10327E0082289817A8F48091A808E091CE28F0E053
:10328E0080838091CE288F5F8093CE289091822864
:10329E008091CE288917C0F482E08093A4088BCF4A
:1032AE0080918128882371F087E08093A40882E0C2
:1032BE008093CB281092CC2881E08093CF28109257
:1032CE00822879CF85E0F1CF80918128882311F073
:1032DE0087E0BDCF85E0BBCF86E089CF1F920F92EE
:1032EE000FB60F9211248F939F93AF93BF9380913C
:1032FE0024288F5F80932428803508F443C0809162
:10330E00C728882341F08091CA288F5F813F08F03B
:10331E0045C08093CA288091C428882399F0809153
:10332E00C0289091C128A091C228B091C3280196BF
:10333E00A11DB11D8093C0289093C128A093C228CF
:10334E00B093C3288091D928823049F480913828CF
:10335E00882329F080910B288F5F80930B28809112
:10336E00C528811104C080919728813049F480913D
:10337E00952890919628019680939528909396285B
:10338E001092242881E080930B0ABF91AF919F91F8
:10339E008F910F900FBE0F901F90189580E5B9CFAB
:1033AE000F931F93CF93DF93EC01162F072F82E31A
:1033BE0090E08E839F8360E0812F0E9432041883F9
:1033CE00098388E592E08A839B8388EE93E08C8361
:1033DE009D83198E1A8E1C8681E090E088879987CE
:1033EE001A861B8661E0812F0E94C6041F86188AEA
:1033FE00198A1A8A1B8A1C8A1D8A1E8A1F8A188E8F
:10340E00DF91CF911F910F910895EF92FF920F933D
:10341E001F93CF93DF93EC017B01188219821A82DE
:10342E001B821C821D82FB0101900020E9F731975F
:10343E008F01061B170BB8016F5F7F4F90E080E086
:10344E000E94D3250097B9F0888399830A831B8342
:10345E002C813D81232B11F4FC0110820C831D83E2
:10346E00B70188819981DF91CF911F910F91FF90C4
:10347E00EF900C94922688819981009711F00E940A
:10348E004A25188219821C821D821A821B82DF91A4
:10349E00CF911F910F91FF90EF9008958F929F9271
:1034AE00AF92BF92CF92DF92EF92FF920F931F9344
:1034BE00CF93DF931092EA281092EB2888EE93E0D8
:1034CE00A0E0B0E08093EC289093ED28A093EE2836
:1034DE00B093EF2886EC9DE88093E8289093E92836
:1034EE0080E098E08093F4289093F52881E0809313
:1034FE00F6281092F7281092F82895E09093F92864
:10350E0094E09093FA288093FB281092FC28109256
:10351E00FD281092FE281092FF281092002910927A
:10352E00012982E180930229109203291092042925
:10353E00C0EEDDE804EE1DE889918B3118F461E0F0
:10354E000E9432040C171D07B9F761E085E00E9456
:10355E00320461E08AE00E94320461E089E00E9458
:10356E003204109287291092882988EEC82E83E0A3
:10357E00D82EE12CF12CC0928929D0928A29E09282
:10358E008B29F0928C2988EE9DE880938529909363
:10359E0086291092392B10923A2B8AEF9DE8809350
:1035AE00372B9093382B87E280933B2B80E18093CF
:1035BE00402B82E08093412B1092422B60E970E900
:1035CE0085E29BE222DF61EA70E98BE29BE21DDF7E
:1035DE0062EB70E981E39BE218DF63EC70E989E14D
:1035EE009BE213DF63EC70E98FE19BE20EDF64ED8B
:1035FE0070E989EE9AE209DF65EE70E98FEE9AE2E4
:10360E0004DF66EF70E985EF9AE2FFDE67E071E9AD
:10361E008BEF9AE2FADE68E171E981E09BE2F5DE7A
:10362E0069E271E987E09BE2F0DE6AE371E98DE021
:10363E009BE2EBDE6BE471E983E19BE2E6DEC1E047
:10364E00D0E0C093D72AD093D82A84E690E0A0E0A9
:10365E00B0E08093CF2A9093D02AA093D12AB09332
:10366E00D22A812C912C540183948092D32A909249
:10367E00D42AA092D52AB092D62A8DEC98E08093C7
:10368E00DF2A9093E02A1092CE2A1092E12A10920D
:10369E00E22A1092E32A1092E42A1092D92A10926A
:1036AE00DA2A1092DB2A1092DC2A6BE070E08EEEA2
:1036BE0099E276DE68E070E08FEC99E271DE67E009
:1036CE0070E080EB99E26CDE65E070E081E999E2F2
:1036DE0067DE1092BC2A1092BD2A80E492E4AFE01D
:1036EE00B0E08093B42A9093B52AA093B62AB093F3
:1036FE00B72A1092B82A1092B92A1092BA2A1092AA
:10370E00BB2A83E79BE08093C42A9093C52A10922C
:10371E00B32A1092C62A1092C72A1092C82A109263
:10372E00C92A1092BE2A1092BF2A1092C02A109255
:10373E00C12A1092A12A1092A22A80E49BE4ACE442
:10374E00B0E08093992A90939A2AA0939B2AB093E3
:10375E009C2A80929D2A90929E2AA0929F2AB09295
:10376E00A02A83E89BE08093A92A9093AA2A10921C
:10377E00982A1092AB2A1092AC2A1092AD2A10926F
:10378E00AE2A1092A32A1092A42A1092A52A109261
:10379E00A62AC093862AD093872AC0927E2AD092D8
:1037AE007F2AE092802AF092812A1092822A109229
:1037BE00832A1092842A1092852A83E791E08093BF
:1037CE008E2A90938F2A10927D2A1092902A109210
:1037DE00912A1092922A1092932A1092882A10926D
:1037EE00892A10928A2A10928B2AC0936B2AD09320
:1037FE006C2A8AEF90E0A0E0B0E08093632A909369
:10380E00642AA093652AB093662A1092672A1092B2
:10381E00682A1092692A10926A2A88E893E18093A6
:10382E00732A9093742A1092622A1092752A10921B
:10383E00762A1092772A1092782A10926D2A109278
:10384E006E2A10926F2A1092702A6CE070E08DE052
:10385E009AE2A6DD8091102890911128A09112284D
:10386E00B0911328C093352AD093362A80932D2AEF
:10387E0090932E2AA0932F2AB093302A1092312A99
:10388E001092322A1092332A1092342A81ED9EE041
:10389E0080933D2A90933E2A10922C2A10923F2A12
:1038AE001092402A1092412A1092422A1092372AE0
:1038BE001092382A1092392A10923A2A40910F28E3
:1038CE0028EE33E0429FC001439F900D1124092E34
:1038DE00000CAA0BBB0BC093502AD093512A809395
:1038EE00482A9093492AA0934A2AB0934B2A1092C1
:1038FE004C2A10924D2A10924E2A10924F2A83E98A
:10390E009EE08093582A9093592A1092472A10923B
:10391E005A2A10925B2A10925C2A10925D2A1092FB
:10392E00522A1092532A1092542A1092552ADF913D
:10393E00CF911F910F91FF90EF90DF90CF90BF909E
:10394E00AF909F908F90089588ED90E084BF9093F4
:10395E0061008091020686608093020680910006C7
:10396E00816080930006809102068F7C8065809333
:10397E0002061092E20583E08093E405C1E0C09355
:10398E00030A9EEF9093270A9093260A80E880936D
:10399E002D0A80932B0A8093290A80932C0A8093F8
:1039AE002A0A8093280A2BE02093000A1092E5053C
:1039BE0037E03093810A90938C0A80938D0A25E02C
:1039CE002093800A3093910A90939C0A80939D0ACB
:1039DE002093900A3093A10A9093AC0A8093AD0A7B
:1039EE002093A00A1092A10A8FE79EE38093AC0A5F
:1039FE009093AD0A8091A50A81608093A50A1092DA
:103A0E00A00A8091A00A81608093A00A789440E871
:103A1E0055E260E070E088EE98E20E94960B0E94FC
:103A2E00660483E48093A6080E94660410923C2BE1
:103A3E008091412B0E94FA100E94B80F88E080936B
:103A4E00422B60E087E39BE20E94910782E00E9496
:103A5E00FA1060913E2B6E7F60933E2B646040E0C7
:103A6E0087E39BE20E94A30F68EE73E080E090E094
:103A7E000E94A20660E080E00E94C9108CE591E9E8
:103A8E000E94CC1161E080E00E94C9108DE691E9A0
:103A9E000E94CC116CED75E080E090E00E94EB0589
:103AAE0061E084E10E94320461E086E10E9432040A
:103ABE0061E085E10E94320461E083E10E943204FC
:103ACE0061E082E10E94320461E088E10E943204EA
:103ADE0061E089E10E94320460E086E10E94C60442
:103AEE0060E085E10E94C60460E088E10E94C604A1
:103AFE0060E089E10E94C60460E086E00E94320424
:103B0E0062E08AE00E94320461E087E10E943204A2
:103B1E0060E08EE00E94320460E08DE00E9432048C
:103B2E0062E088E00E94320462E087E00E94320484
:103B3E0062E08BE00E94320462E085E00E94320473
:103B4E0089E99DE08093FB299093FC298CEB9CE006
:103B5E008093012A9093022A85EF92E08093DC29CC
:103B6E009093DD2983EC99E08093E6299093E729E1
:103B7E008CE79AE08093BD299093BE298CE099E062
:103B8E008093C7299093C82987E39CE080939E2950
:103B9E0090939F2981EE93E08093A4299093A52979
:103BAE008AED98E08093A8299093A92988EE93E056
:103BBE008093A6299093A72983EB9AE20E9482060E
:103BCE0062E08CE00E94320461E084E00E943204E4
:103BDE0082EC9FE080931A2A90931B2A8DE49FE03B
:103BEE008093202A9093212A0E94D50B82E69AE296
:103BFE000E948206F894C0930A0A1092010A8091DC
:103C0E00090A8E7F8093090A82EC90E08093260A3F
:103C1E009093270A8FE08093000A789482E0F82E22
:103C2E0001E010E093E0E92E82E69AE20E9424067B
:103C3E008DE09AE20E94FC078CE29AE20E94240632
:103C4E0087E49AE20E9424068EEC9AE20E942406F1
:103C5E008EEE99E20E94FC078FEC99E20E94FC071F
:103C6E0080EB99E20E94FC0781E999E20E94FC0731
:103C7E0083EB9AE20E94240688E99AE20E942406C7
:103C8E00D090DA28D11004C010929228C093C42884
:103C9E00D0910528D13009F46DC2D0910628DD23CC
:103CAE0021F061E084E10E94C6048091C628811152
:103CBE0064C08091C528811160C0DD2309F45DC008
:103CCE00C093C728D091CA28D83208F456C0109293
:103CDE00D42861E083E10E94C6048091C428882321
:103CEE0011F0DD2029F09091A528992309F487C1C0
:103CFE00F0920528C09392280E94960580919128F3
:103D0E00811108C00E9496051092CA28C09391286E
:103D1E001092E5288091CA288E3240F061E086E14B
:103D2E000E94C60460E085E10E94C6048091C0280E
:103D3E009091C128A091C228B091C3288C32914095
:103D4E00A105B105D0F0109291281092C928C09308
:103D5E00DA281092C4281092C0281092C12810920E
:103D6E00C2281092C3281092C72860E088E10E94F2
:103D7E00C60460E084E10E94C6048AE00E94A205A7
:103D8E0090919428911103C0882309F456C1F092A2
:103D9E0005288091A3289091A42801968093A328AA
:103DAE009093A42880909F289090A028A090A1285E
:103DBE00B090A228843F91400CF0F5C1F092060617
:103DCE00C093080680910B0680FFFCCF6091100611
:103DDE0070911106072E000C880B990B05D320E06D
:103DEE0030E040EA50E45FD320E030EC4FE754E49B
:103DFE00BDD4A501940156D460939F287093A0283A
:103E0E008093A1289093A2288090BC289090BD28E2
:103E1E00A090BE28B090BF2860910D2870E090E071
:103E2E0080E0E2D2A5019401D9D287FF1EC120E025
:103E3E0030E040EF52E4C501B401D0D287FF15C186
:103E4E008091C728882361F18091CA288C3340F174
:103E5E001092B728C093C5281092992810929A28CC
:103E6E0080919828811107C0809197288F5F809349
:103E7E009728C0939828E092E528809195289091F4
:103E8E009628853A914064F480919728823041F4C7
:103E9E0010929528109296280E94CD06109297287F
:103EAE008091AE289091AF2801968093AE28909382
:103EBE00AF288090AA289090AB28A090AC28B09004
:103ECE00AD28843F91400CF0DFC1C0930606C0932D
:103EDE00080680910B0680FFFCCF60911006709152
:103EEE001106072E000C880B990B7ED220E030E0D5
:103EFE0040EA50E4D8D220E030EC4FE754E436D418
:103F0E00A5019401CFD36093AA287093AB28809318
:103F1E00AC289093AD288DE79AE20E94240686E0A5
:103F2E000E94A205D82F813009F0D9C08091B62801
:103F3E008111D5C08091C728882309F4D0C0809103
:103F4E00B528811106C08DE79AE20E948206D093B1
:103F5E00B5288091B3289091B4289C012E51310937
:103F6E00223D310508F0F5C0C093C628E092E52841
:103F7E001092CA281092B1281092B2288091C628A9
:103F8E00811108C08091C528882341F08091C728EF
:103F9E00882321F01092CA280E94BC0620E030E04F
:103FAE0040EA52E46091BC287091BD288091BE28F1
:103FBE009091BF2874D418167CF020E030E040EACF
:103FCE0052E46091B8287091B9288091BA289091E6
:103FDE00BB2865D4181684F460E083E10E94C60401
:103FEE001092CA281092C5281092C6280E94BC06AC
:103FFE00E092E528C093B7280E94D20215CE811117
:10400E00BCCEDD2009F4B9CEDE3280F061E082E173
:10401E000E94C604D33350F061E086E10E94C604CC
:10402E00D83320F061E085E10E94C60461E088E1AA
:10403E000E94C6041092C928A0CE8091C428811176
:10404E00A8CE809193288F5F873960F48093932850
:10405E0080919328853608F49CCEC0930528109243
:10406E00932897CE10929328F3CF1092C528809163
:10407E009728823068F480919528909196288D31FA
:10408E00924034F01092972810929528109296280C
:10409E008091992890919A28892B09F001CF10923E
:1040AE00E5280093992810939A281092982860E09A
:1040BE0087E10E94C604F4CE1092E5281092C8281B
:1040CE001092B728C093C4281092DA281092C028F4
:1040DE001092C1281092C2281092C3281CCF86E0DD
:1040EE000E94A20581113CC01092B3281092B428F0
:1040FE001092B52810927D2A1092882A1092892A41
:10410E0010928A2A10928B2A10928C2A10928D2A43
:10411E001092C6288091B1289091B228892B09F06F
:10412E0031CF1092E5288091B0288111C093E528F7
:10413E000093B1281093B22860E089E10E94C60472
:10414E0060E088E10E94C60460E087E10E94C60438
:10415E0015CF813F91050CF411CF0E94CD060ECFE5
:10416E008091B6288111C0CF8091C728882309F489
:10417E00BBCF04CF1092C6281092C5281092C72824
:10418E001092CA2860E088E10E94C60460E084E1D3
:10419E000E94C60460E083E10E94C6040E94BC0631
:1041AE00D093C928EACD20E030E04AEF53E4C501B0
:1041BE00B401DCD220E030E040E251E4D7D24B0132
:1041CE005C0120E83EE14CEA5BE46DD120E030E09A
:1041DE0040EA50E4CBD220E03EE745EE58E462D20E
:1041EE002B013C0120E030E046E955E4C501B40165
:1041FE005AD120E030E040EA50E4B8D29B01AC0145
:10420E0060E070EE82E995E44CD29B01AC01C301F3
:10421E00B201ACD220E030E048EC52E4A7D220E06C
:10422E0030E040E85FE33DD228E430E54CE75BE365
:10423E009DD24B015C0180929B2890929C28A0926B
:10424E009D28B0929E286091E1287091E228072E59
:10425E00000C880B990BC8D0A501940123D2609352
:10426E00BC287093BD288093BE289093BF281092CF
:10427E00A3281092A42810929F281092A028109282
:10428E00A1281092A228C0CD20E030E04AEF53E4DE
:10429E00C501B4016BD220E030E040E251E466D2B9
:1042AE004B015C0120E83EE14CEA5BE4FCD020E0EF
:1042BE0030E040EA50E45AD220E03EE745EE58E4C2
:1042CE00F1D12B013C0120E030E046E955E4C50177
:1042DE00B401E9D020E030E040EA50E447D29B013F
:1042EE00AC0160E070EE82E995E4DBD19B01AC019C
:1042FE00C301B2013BD220E030E048EC52E436D2AA
:10430E0020E030E040E85FE3CCD128E430E54CE734
:10431E005BE32CD24B015C018092A6289092A728D9
:10432E00A092A828B092A9286091DD287091DE286D
:10433E00072E000C880B990B57D0A5019401B2D112
:10434E004B015C018092B8289092B928A092BA28AD
:10435E00B092BB281092AE281092AF281092AA28C5
:10436E001092AB281092AC281092AD2860910D28B7
:10437E0070E090E080E038D09B01AC01C501B40143
:10438E008ED218160CF498CE1092A528C4CDCF93C9
:10439E00DF93C9E1DBE226978881998174D38AE2A3
:1043AE00C93ED807C1F780911F2B9091202B6BD35C
:1043BE008091192B90911A2B66D38091312B90916D
:1043CE00322B61D380912B2B90912C2B5CD380912F
:1043DE00252B9091262BDF91CF9155C340D008F419
:1043EE0081E00895E89409C097FB3EF4909580957E
:1043FE00709561957F4F8F4F9F4F9923A9F0F92F9D
:10440E0096E9BB279395F695879577956795B7951A
:10441E00F111F8CFFAF4BB0F11F460FF1BC06F5F00
:10442E007F4F8F4F9F4F16C0882311F096E911C012
:10443E00772321F09EE8872F762F05C0662371F033
:10444E0096E8862F70E060E02AF09A95660F771F47
:10445E00881FDAF7880F9695879597F90895990F23
:10446E000008550FAA0BE0E8FEEF16161706E80730
:10447E00F907C0F012161306E407F50798F0621B51
:10448E00730B840B950B39F40A2661F0232B242B26
:10449E00252B21F408950A2609F4A140A6958FEF45
:1044AE00811D811D08950BD078C069D028F06ED083
:1044BE0018F0952309F05AC05FC01124A2C07ED017
:1044CE00A0F3959FD1F3950F50E0551F629FF00119
:1044DE00729FBB27F00DB11D639FAA27F00DB11D72
:1044EE00AA1F649F6627B00DA11D661F829F2227FB
:1044FE00B00DA11D621F739FB00DA11D621F839F82
:10450E00A00D611D221F749F3327A00D611D231F57
:10451E00849F600D211D822F762F6A2F11249F57A5
:10452E0050408AF0E1F088234AF0EE0FFF1FBB1FC8
:10453E00661F771F881F91505040A9F79E3F510567
:10454E0070F014C05EC05F3FECF3983EDCF38695CE
:10455E0077956795B795F795E7959F5FC1F7FE2B12
:10456E00880F911D9695879597F9089597F99F67EE
:10457E0080E870E060E008959FEF80EC08950024DD
:10458E000A941616170618060906089500240A94AA
:10459E0012161306140605060895092E0394000C30
:1045AE0011F4882352F0BB0F40F4BF2B11F460FFBF
:1045BE0004C06F5F7F4F8F4F9F4F089557FD9058E8
:1045CE00440F551F59F05F3F71F04795880F97FBC9
:1045DE00991F61F09F3F79F0879508951216130683
:1045EE001406551FF2CF4695F1DF08C016161706B2
:1045FE001806991FF1CF86957105610508940895E7
:10460E00E894BB2766277727CB0197F908953AD010
:10461E00A59F900DB49F900DA49F800D911D112408
:10462E0008952F923F924F925F926F927F928F9248
:10463E009F92AF92BF92CF92DF92EF92FF920F9323
:10464E001F93CF93DF93CDB7DEB7CA1BDB0BCDBF66
:10465E00DEBF09942A88398848885F846E847D84F9
:10466E008C849B84AA84B984C884DF80EE80FD800C
:10467E000C811B81AA81B981CE0FD11DCDBFDEBFAA
:10468E00ED010895A29FB001B39FC001A39F700DCD
:10469E00811D1124911DB29F700D811D1124911D3C
:1046AE0008955058BB27AA270ED077CF68DF30F079
:1046BE006DDF20F031F49F3F11F41EF45DCF0EF448
:1046CE00E095E7FB53CFE92F79DF80F3BA17620746
:1046DE0073078407950718F071F49EF591CF0EF4C9
:1046EE00E0950B2EBA2FA02D0B01B90190010C01F4
:1046FE00CA01A0011124FF27591B99F0593F50F40C
:10470E00503E68F11A16F040A22F232F342F442763
:10471E00585FF3CF469537952795A795F04053955B
:10472E00C9F77EF41F16BA0B620B730B840BBAF02B
:10473E009150A1F0FF0FBB1F661F771F881FC2F796
:10474E000EC0BA0F621F731F841F48F487957795AA
:10475E006795B795F7959E3F08F0B3CF9395880F61
:10476E0008F09927EE0F9795879508950CD015CFE1
:10477E000DDF40F004DF30F021F45F3F19F0F6CE8C
:10478E0051113FCFF9CE1ADF98F39923C9F3552370
:10479E00B1F3951B550BBB27AA2762177307840726
:1047AE0038F09F5F5F4F220F331F441FAA1FA9F3DC
:1047BE0033D00E2E3AF0E0E830D091505040E695CE
:1047CE00001CCAF729D0FE2F27D0660F771F881F2F
:1047DE00BB1F261737074807AB07B0E809F0BB0B1E
:1047EE00802DBF01FF2793585F4F2AF09E3F510542
:1047FE0068F0BCCE06CF5F3FECF3983EDCF38695B7
:10480E0077956795B795F7959F5FC9F7880F911DB7
:10481E009695879597F90895E1E0660F771F881FA3
:10482E00BB1F621773078407BA0720F0621B730B56
:10483E00840BBA0BEE1F88F7E095089504D06894A8
:10484E00B111DFCE0895C2DE88F09F5790F0B92FD8
:10485E009927B751A0F0D1F0660F771F881F991FC7
:10486E001AF0BA95C9F712C0B13081F0C9DEB1E0C5
:10487E000895C6CE672F782F8827B85F39F0B93FD5
:10488E00CCF3869577956795B395D9F73EF49095C9
:10489E008095709561957F4F8F4F9F4F0895DFDD07
:1048AE0008F48FEF0895DBDD880B990B0895A1E2D4
:1048BE001A2EAA1BBB1BFD010DC0AA1FBB1FEE1F8C
:1048CE00FF1FA217B307E407F50720F0A21BB30BD7
:1048DE00E40BF50B661F771F881F991F1A9469F753
:1048EE0060957095809590959B01AC01BD01CF01AF
:1048FE000895052E97FB16F400940FD057FD05D0A2
:10490E00D6DF07FC02D046F408C05095409530958E
:10491E0021953F4F4F4F5F4F08959095809570951D
:10492E0061957F4F8F4F9F4F0895EE0FFF1F05909C
:10493E00F491E02D0994A6DEB7FF0895821B930B28
:10494E000895B7FF64CE63DE821B930B08950F9319
:10495E001F93CF93DF938230910510F482E090E0A5
:10496E00E091452BF091462B30E020E0B0E0A0E046
:10497E00309799F42115310509F44AC0281B390BDB
:10498E0024303105D8F58A819B816115710589F135
:10499E00FB0182839383FE0111C04081518102810C
:1049AE00138148175907E0F04817590799F41097E3
:1049BE0061F012960C93129713961C933296CF01B8
:1049CE00DF91CF911F910F9108950093452B109376
:1049DE00462BF4CF2115310551F04217530738F00D
:1049EE00A901DB019A01BD01DF01F801C1CFEF0181
:1049FE00F9CF8093452B9093462BCDCFFE01E20F3E
:104A0E00F31F819391932250310928833983D7CF95
:104A1E002091432B3091442B232B41F420911628C7
:104A2E00309117282093432B3093442B2091142838
:104A3E00309115282115310541F42DB73EB740911F
:104A4E00182850911928241B350BE091432BF09117
:104A5E00442BE217F307A0F42E1B3F0B2817390740
:104A6E0078F0AC014E5F5F4F2417350748F04E0FBC
:104A7E005F1F4093432B5093442B819391939FCF71
:104A8E00F0E0E0E09CCFCF93DF930097E9F0FC01DC
:104A9E00329712821382A091452BB091462BED01D5
:104AAE0030E020E01097A1F420813181820F931F16
:104ABE002091432B3091442B2817390709F061C000
:104ACE00E093432BF093442BDF91CF910895EA01AD
:104ADE00CE17DF07E8F54A815B819E01411551052E
:104AEE00B1F7E901EA83FB8349915991C40FD51FB0
:104AFE00EC17FD0761F4808191810296840F951F5A
:104B0E00E90188839983828193818A839B83F0E074
:104B1E00E0E012968D919C9113970097B9F52D9127
:104B2E003C911197CD010296820F931F2091432B3A
:104B3E003091442B2817390739F6309751F51092DA
:104B4E00452B1092462BA093432BB093442BBCCFF6
:104B5E00C283D38340815181840F951FC817D90713
:104B6E0061F44E5F5F4F88819981480F591F4083D2
:104B7E0051838A819B81828393832115310509F0AC
:104B8E00B0CFE093452BF093462B9ECFFD01DC0179
:104B9E00C0CF12821382D7CFB0E0A0E0E8EDF5E2ED
:104BAE0042CD8C01009741F4CB01D1DE8C01C801BE
:104BBE00CDB7DEB7E0E150CDFC01E60FF71F9C014B
:104BCE0022503109E217F30708F499C0D901CD91AB
:104BDE00DC911197C617D70790F0C530D10538F381
:104BEE00CE0104978617970710F3C61BD70B229793
:104BFE00C193D1936D937C93CF0145DFD8CF5B01E9
:104C0E00AC1ABD0A4C018C0E9D1EA091452BB09185
:104C1E00462B512C412CF12CE12C109731F5809123
:104C2E00432B9091442B8815990509F05CC04616CC
:104C3E00570608F058C080911428909115280097B7
:104C4E0041F48DB79EB74091182850911928841BB6
:104C5E00950BE817F90708F052C0E093432BF09339
:104C6E00442BF90160837183A2CF8D919C91119792
:104C7E0012966C90129713967C901397A815B905FF
:104C8E0059F56C0142E0C40ED11CCA14DB0420F1AC
:104C9E00AC014A195B09DA011296159780F062820F
:104CAE00738240835183D9016D937C93E114F10497
:104CBE0071F0D7011296ED93FC93139778CF22964D
:104CCE008C0F9D1FF90180839183F301EFCFE09349
:104CDE00452BF093462B6BCF4816590608F42C0142
:104CEE007D01D3019ACFCB0132DE7C01009739F0E2
:104CFE00AE01B80107D0C801C6DE870158CF10E05B
:104D0E0000E055CFFB01DC0102C001900D92415035
:104D1E005040D8F70895FB01DC0101900D92002060
:104D2E00E1F7089511E0C9E4D1E003C0FE01FDDD15
:104D3E002196CA34D107D1F7F894FFCF0000400076
:104D4E00140054007E9181910000020300000000C7
:104D5E00000000000101010101010000000000003F
:104D6E000000000001020304050607000102030013
:104D7E0001020304050607000102030405060000F4
:104D8E0000000000000002020202030303030303FB
:104D9E00030305050505050505010204081020405D
:104DAE008001020408010204081020408001020460
:104DBE0008102040000000005802FB039001A802DA
:104DCE00C1019F01B301F101E601960B0405CD016E
:104DDE0030040C0D0E0F0000000076075107F90786
:104DEE002C074A073B072D0700000000F510FB03B8
:104DFE00F907F80750524553532053455420544F4A
:104E0E0020202020005354415254205052494D49E5
:104E1E004E4720202000202020202020574149549A
:104E2E002020202020200020202020202020202094
:104E3E0020202020202020005052494D494E472E40
:104E4E002E2E202020202020005052455353205338
:104E5E00455420544F2020200053455420504F4994
:104E6E004E54204F462044495300564F4C554D4505
:104E7E003A2020202020202020200050524553533D
:104E8E002044495350454E5345202000454E54452D
:104E9E005220564F4C554D45202020202000455283
:104EAE00524F523A20202020202020202020006E19
:104EBE00616E00696E66006F7666002E004449537F
:104ECE0050454E53494E472E2E2E20202000444949
:104EDE005350454E534520535445503A20200044DC
:104EEE00495350454E534520434F4D504C45544524
:104EFE000020202044495350454E53494E47202010
:104F0E002000202020434F4D504C45544544202036
:104F1E00202000424F494C45522054454D503A00F6
:104F2E004449535020535445503A202020202020ED
:104F3E0000564F4C554D453A20202020206D4C20D8
:104F4E0020004449535020535445503A00424F4993
:104F5E004C455220322046696C6C202020003E20A9
:104F6E000053544152542020202020202020202065
:104F7E0020005341464554592054454D5020202081
:104F8E002020004D41582054454D503A20202020DD
:104F9E002020200050524F4245313A004552524F88
:104FAE0052203A20202020202020200050524F4214
:104FBE0045323A004552524F52203A2020202020AE
:104FCE002020202000466C6F77204F766572726924
:104FDE006465202020003E2020202020202020005C
:104FEE004449535020574149542054494D4520209F
:104FFE000054494D453A202020202020534543207F
:10500E0020004C6576656C204F766572726964651A
:10501E002020003E20202020202020004E6F2050F7
:10502E0072696D61727920496E6C65740020202062
:10503E002020466F756E6420202020202000202026
:10504E0020202020464C4F572020202020200020BA
:10505E0020202020204552524F5220202020200078
:10506E002020205348555420444F574E20202020B6
:10507E00002020504F57455220535550504C592028
:10508E002000202054414E4B2046494C4C494E475F
:10509E0020200020202054414E4B2046554C4C20C1
:1050AE002020200050524F43455353205354414E1D
:1050BE00444259200046494C4C494E4720424F49E4
:1050CE004C45522032003E20424F494C2032204661
:1050DE00494C4C202020003E205341464554592037
:1050EE0054454D50202020003E2043414C49422043
:1050FE0050524F4245203120003E2043414C494200
:10510E002050524F4245203220003E2043414C4910
:10511E00422050554D5020202020003E20464C4F1E
:10512E0057204F5645525249444520003E2044498F
:10513E005350454E5345205741495420003E204C74
:10514E004556454C204F56455252494445004C61F8
:10515E0062517565737420426F726F73696C0020B3
:10516E002020514344205620312E30302020200064
:10517E004E4F0059455300010A00000002010A007B
:10518E0000000641373702F50200000000472B8071
:01519E000010
:00000001FF
