:020000040000FA
:1000000001C0D8C0112480914000882369F0282FB6
:1000100030E083FD03C02C7F232B31F4809340001C
:100020008CBB80E0AFD0ECC0A895009A089A1092E3
:10003000E205809182128370813029F58CE590E091
:10004000809308089093090881E080930B0883E06F
:10005000809307081092050880EC8093060888E0DA
:1000600091D0079A87E0815089F4A8950DE983E043
:10007000D82E7CD08134F1F479D0182F8CD012385E
:1000800089F480E013C083E790E0DACF179A2EEC72
:1000900036E5A8959091040897FDE8CF21503109E5
:1000A000C1F7E1CF89E0113809F083E058D080E151
:1000B00056D0DFCF823419F484E175D0F8CF85347F
:1000C00011F485E0FACF853531F450D0C82F4ED0E9
:1000D000D82F61D0ECCF863519F484E064D0D1CF2D
:1000E0008436B9F443D042D0182F40D0863479F406
:1000F000D05C3CD0888321961150D9F74CD004BFF6
:10010000D0920010809102108370E1F7D0CFDC5EB6
:10011000F0CF843791F42AD029D0182F27D0F82E89
:100120003AD086E4F81207C0D05C8881219617D0B7
:100130001150D9F7BCCFDC5EF8CF853751F42BD006
:10014000809100110CD08091011109D08091021191
:10015000ADCF813509F0BDCF81E014D0BACF9091F9
:10016000040895FFFCCF809302080895809104084D
:1001700087FFFCCF909101088091000892FD01C09B
:10018000A89508959091010190FDFCCF98ED94BF42
:10019000809300010895EADF803219F081E0F2DFF8
:1001A000FFCF84E1DCCFCF93C82FE0DFC150E9F768
:1001B000CF91F1CF683048F48DE984BF609300108F
:1001C000809102108370E1F70895FC014083089547
:1001FE00000947C0000055C0000053C0000051C0A8
:10020E0000004FC000004DC000004BC0000049C0B0
:10021E00000047C0000045C0000043C0000041C0C0
:10022E0000003FC000003DC000003BC0000039C0D0
:10023E00000037C0000035C0000033C0000031C0E0
:10024E0000002FC000002DC000002BC0000029C0F0
:10025E00000027C0000084C0000023C0000021C0A1
:10026E0000001FC000001DC000001BC0000019C010
:10027E00000017C0000015C0000013C0000011C020
:10028E00000011241FBECFEFCDBFDFE3DEBF28E29B
:10029E00A0E0B8E201C01D92A430B207E1F788D009
:1002AE003FC1A7CF9091A00493FF0AC0811104C053
:1002BE0088E08093A604089588E08093A5040895AD
:1002CE009FB7F894811107C08091B304877F809304
:1002DE00B3049FBF08958091B3048860F8CF8FB7A1
:1002EE00F8942091002830910128409102285091D5
:1002FE000328E091AA0AF091AB0A9091A60A90FF0A
:10030E0008C02F5F3F4F4F4F5F4FE091AA0AF09109
:10031E00AB0A8FBFA8EEB3E0EAD024E0F695E795DE
:10032E002A95E1F76E0F7F1F811D911D0895FC0127
:10033E00FF2790FD12C080E094E1E82BF92B60833B
:10034E008FB7F8949DE923E094BF209300108FBFE0
:10035E008091021081FDFCCF089580E093E1EDCFF6
:10036E001F920F920FB60F9211248F939F93AF93FC
:10037E00BF938091002890910128A0910228B091FE
:10038E0003280196A11DB11D80930028909301288A
:10039E00A0930228B093032881E08093A60ABF9110
:1003AE00AF919F918F910F900FBE0F901F90189548
:1003BE0088ED90E084BF9093610080910206866084
:1003CE0080930206809100068160809300068091E2
:1003DE0002068F7C8065809302061092E20583E010
:1003EE008093E40581E08093030A9EEF9093270AA1
:1003FE009093260A80E880932D0A80932B0A80938F
:10040E00290A80932C0A80932A0A8093280A2BE0CB
:10041E002093000A1092E50537E03093810A9093FD
:10042E008C0A80938D0A25E02093800A3093910ADE
:10043E0090939C0A80939D0A2093900A3093A10A70
:10044E009093AC0A8093AD0A2093A00A1092A10A51
:10045E008FE79EE38093AC0A9093AD0A8091A50A34
:10046E0081608093A50A1092A00A8091A00A8160F3
:10047E008093A00A789488E08093A10460E081E0E4
:10048E0090E055DF61E482E090E051DF67E38EE0BB
:10049E0090E04DDF61E481E090E049DF81E002DF32
:1004AE001EDF6B017C0120E4C20E22E4D21E2FE07F
:1004BE00E21EF11C80E4C81682E4D8068FE0E8063E
:1004CE00F10430F40CDFC616D706E806F906D0F3B1
:1004DE0006DF6C157D058E059F05D0F380E0E2DE0C
:1004EE00C0E0D0E02097F1F30E940000FBCF09D0CE
:1004FE00A59F900DB49F900DA49F800D911D11246A
:10050E000895A29FB001B39FC001A39F700D811DDE
:10051E001124911DB29F700D811D1124911D0895FE
:04052E00F894FFCF6F
:00000001FF
