:1002000047C0000055C0000053C0000051C00000AE
:100210004FC000004DC000004BC0000049C00000AE
:1002200047C0000045C0000043C0000041C00000BE
:100230003FC000003DC000003BC0000039C00000CE
:1002400037C0000035C0000033C0000031C00000DE
:100250002FC000002DC000002BC0000029C00000EE
:1002600027C0000084C0000023C0000021C000009F
:100270001FC000001DC000001BC0000019C000000E
:1002800017C0000015C0000013C0000011C000001E
:1002900011241FBECFEFCDBFDFE3DEBF28E2A0E019
:1002A000B8E201C01D92A430B207E1F788D03FC187
:1002B000A7CF9091A00493FF0AC0811104C088E0E9
:1002C0008093A604089588E08093A50408959FB7BD
:1002D000F894811107C08091B304877F8093B304A1
:1002E0009FBF08958091B3048860F8CF8FB7F894CA
:1002F0002091002830910128409102285091032834
:10030000E091AA0AF091AB0A9091A60A90FF08C06A
:100310002F5F3F4F4F4F5F4FE091AA0AF091AB0A1A
:100320008FBFA8EEB3E0EAD024E0F695E7952A95D2
:10033000E1F76E0F7F1F811D911D0895FC01FF27BE
:1003400090FD12C080E094E1E82BF92B60838FB719
:10035000F8949DE923E094BF209300108FBF809113
:10036000021081FDFCCF089580E093E1EDCF1F9254
:100370000F920FB60F9211248F939F93AF93BF9359
:100380008091002890910128A0910228B091032823
:100390000196A11DB11D8093002890930128A09380
:1003A0000228B093032881E08093A60ABF91AF9101
:1003B0009F918F910F900FBE0F901F90189588ED11
:1003C00090E084BF909361008091020686608093E4
:1003D00002068091000681608093000680910206EB
:1003E0008F7C8065809302061092E20583E0809303
:1003F000E40581E08093030A9EEF9093270A90938F
:10040000260A80E880932D0A80932B0A8093290A7C
:1004100080932C0A80932A0A8093280A2BE0209349
:10042000000A1092E50537E03093810A90938C0A18
:1004300080938D0A25E02093800A3093910A90934F
:100440009C0A80939D0A2093900A3093A10A90936E
:10045000AC0A8093AD0A2093A00A1092A10A8FE7FC
:100460009EE38093AC0A9093AD0A8091A50A8160C7
:100470008093A50A1092A00A8091A00A81608093BF
:10048000A00A789488E08093A10460E081E090E085
:1004900055DF61E482E090E051DF67E38EE090E0B9
:1004A0004DDF61E481E090E049DF81E002DF1EDFA3
:1004B0006B017C0120E4C20E22E4D21E2FE0E21E7A
:1004C000F11C80E4C81682E4D8068FE0E806F10447
:1004D00030F40CDFC616D706E806F906D0F306DFBF
:1004E0006C157D058E059F05D0F380E0E2DEC0E04F
:1004F000D0E02097F1F30E940000FBCF09D0A59F28
:10050000900DB49F900DA49F800D911D112408950E
:10051000A29FB001B39FC001A39F700D811D112444
:10052000911DB29F700D811D1124911D0895F894A5
:02053000FFCFFB
:0400000300000200F7
:00000001FF
