:1002000047C0000055C0000053C0000051C00000AE
:100210004FC000004DC000004BC0000049C00000AE
:1002200047C0000045C0000043C0000041C00000BE
:100230003FC000003DC000003BC0000039C00000CE
:1002400037C0000035C0000033C0000031C00000DE
:100250002FC000002DC000002BC0000029C00000EE
:1002600027C0000026C0000023C0000021C00000FD
:100270001FC000001DC000001BC0000019C000000E
:1002800017C0000015C0000013C0000011C000001E
:1002900011241FBECFEFCDBFDFE3DEBF28E2A0E019
:1002A000B8E201C01D92A430B207E1F72AD0C1C064
:1002B000A7CF1F920F920FB60F9211248F939F9387
:1002C000AF93BF938091002890910128A0910228BC
:1002D000B09103280196A11DB11D80930028909331
:1002E0000128A0930228B093032881E08093A60AF6
:1002F000BF91AF919F918F910F900FBE0F901F9064
:10030000189588ED90E084BF90936100809102067B
:1003100086608093020680910006816080930006CB
:10032000809102068F7C8065809302061092E20520
:1003300083E08093E40581E08093030A9EEF90932D
:10034000270A9093260A80E880932D0A80932B0A2F
:100350008093290A80932C0A80932A0A8093280A82
:100360002BE02093000A1092E50537E03093810AD4
:1003700090938C0A80938D0A25E02093800A309315
:10038000910A90939C0A80939D0A2093900A30933F
:10039000A10A9093AC0A8093AD0A2093A00A109210
:1003A000A10A8FE79EE38093AC0A9093AD0A8091F7
:1003B000A50A81608093A50A1092A00A8091A00AE4
:1003C00081608093A00A789482E08093610490E039
:1003D00080E02DE933E0FC01F46110824FB7F8941E
:1003E00024BF309300104FBF4091021041FDFCCF5D
:1003F0000196811541E0940771F78091010A8D7F84
:100400008093010A8091600481FF0AC082E080939A
:100410006504C0E0D0E02097F1F30E940000FBCF1C
:100420009FB7F894809171048860809371049FBF96
:06043000F0CFF894FFCFAD
:0400000300000200F7
:00000001FF
